:100000000C9446000C9465000C9465000C946500FB
:100010000C9465000C9465000C9465000C946500CC
:100020000C9465000C9465000C9465000C946500BC
:100030000C9465000C9492000C9465000C9465007F
:100040000C9465000C9465000C9465000C9465009C
:100050000C9465000C9465000C9465000C9465008C
:100060000C9465000C9465000C9465000C9465007C
:100070000C9465000C9465000C9465000C9465006C
:100080000C9465000C9465000C94650011241FBE4F
:10009000CFEFD0E4DEBFCDBF11E0A0E0B1E0E0E102
:1000A000F8E000E00BBF02C007900D92A432B10748
:1000B000D9F711E0A4E2B1E001C01D92A833B10765
:1000C000E1F70E946B020C9406040C9400008BE094
:1000D000809381008DE790E0909389008093880061
:1000E00082E080936F0010928500109284008091CE
:1000F000200190912101A0912201B09123018093D0
:100100002D0190932E01A0932F01B09330018FB752
:1001100080688FBF089510928100089581E08093D8
:10012000310108951F920F920FB60F9211240BB652
:100130000F922F933F934F935F936F937F938F9380
:100140009F93AF93BF93EF93FF9380912D01909175
:100150002E01A0912F01B09130010197A109B109A1
:1001600080932D0190932E01A0932F01B093300125
:10017000892B8A2B8B2B91F40E948E008091200179
:1001800090912101A0912201B091230180932D0132
:1001900090932E01A0932F01B0933001FF91EF9126
:1001A000BF91AF919F918F917F916F915F914F918F
:1001B0003F912F910F900BBE0F900FBE0F901F908D
:1001C00018956093200170932101809322019093F0
:1001D000230160932D0170932E0180932F01909342
:1001E00030010895CF92DF92EF92FF926B017C0174
:1001F0002091320130913301409134015091350109
:100200000E948D02882309F467C020E030E0A90134
:10021000C701B6010E948D02811106C0E1E9F0E03C
:1002200080818870808305C0E1E9F0E0808183608F
:10023000808328E539E344E75FE3C701B6010E9404
:100240008D0288233CF48FEF9FEF90939900809369
:10025000980036C020E034E244EF56E4C701B6010E
:100260000E949F0318162CF4109299001092980087
:1002700027C020E034E244EF56E4C701B6010E94F3
:100280009F0318162CF4109299001092980018C031
:1002900020E030E040E053E4C701B6010E94A30330
:1002A0009B01AC0160E074E284EF9AE40E94910249
:1002B0000E94F9026150710970939900609398004F
:1002C0001092950010929400C0923201D0923301A6
:1002D000E0923401F0923501FF90EF90DF90CF90E3
:1002E000089580E4809390008BE08093910060E01B
:1002F00070E0CB010E94F2000895109290001092DD
:100300009100089530B132FB332730F920B12695A2
:10031000217080B1482F417080FD05C080912A0175
:100320008F5F80932A01211105C080912A018F5F80
:1003300080932A01311105C080912A018F5F80933B
:100340002A0180913601909137018230910579F030
:1003500030F4009799F0019709F443C0B9C0833095
:10036000910509F48FC0049709F466C0B1C08FE10C
:1003700088B91092370110923601AAC08FE188B96E
:1003800080912A01823008F0A3C041110BC02223C2
:1003900049F0332339F081E090E090933701809366
:1003A000360196C0442359F0211109C0332339F096
:1003B00084E090E0909337018093360189C0442314
:1003C00059F0222349F0311107C083E090E0909367
:1003D0003701809336017CC01092370110923601AC
:1003E00077C082E088B980912A01823028F060E0ED
:1003F00070E0CB010E94F2008091290181110EC0B2
:1004000081E08093290160912501709126018091FE
:100410002701909128010E94F20009C0813039F42F
:100420001092290160E070E0CB010E94F20010926E
:100430003701109236014CC084E088B9E091240164
:10044000E11103C01092240118C0E150E09324018F
:10045000F0E0EE0FFF1FEE0FFF1FE050FF4F608137
:10046000718182819381609325017093260180932D
:100470002701909328010E94F200109237011092F8
:10048000360126C086E088B9E0912401E73021F4E6
:1004900087E08093240118C0EF5FE0932401F0E02F
:1004A000EE0FFF1FEE0FFF1FE050FF4F60817181C5
:1004B00082819381609325017093260180932701A7
:1004C000909328010E94F200109237011092360199
:1004D00010922A01089511B88FEF82B984B915B826
:1004E00087B918B88AB91BB868EE73E080E090E06D
:1004F0000E94E1000E94670082E090E09093370143
:10050000809336010E9471010E9482018091310125
:100510008823E1F310923101F7CF9CD008F481E0F9
:1005200008950CD0D2C0CAD040F0C1D030F021F430
:100530005F3F19F0B3C05111FCC0B6C0D7D098F3DB
:100540009923C9F35523B1F3951B550BBB27AA2754
:1005500062177307840738F09F5F5F4F220F331FC6
:10056000441FAA1FA9F333D00E2E3AF0E0E830D092
:1005700091505040E695001CCAF729D0FE2F27D095
:10058000660F771F881FBB1F261737074807AB0763
:10059000B0E809F0BB0B802DBF01FF2793585F4FD8
:1005A0002AF09E3F510568F079C0C3C05F3FECF36D
:1005B000983EDCF3869577956795B795F7959F5F9D
:1005C000C9F7880F911D9695879597F90895E1E0F1
:1005D000660F771F881FBB1F621773078407BA0750
:1005E00020F0621B730B840BBA0BEE1F88F7E095AB
:1005F000089504D06894B1119CC008957FD088F00C
:100600009F5790F0B92F9927B751A0F0D1F0660FFE
:10061000771F881F991F1AF0BA95C9F712C0B13019
:1006200081F086D0B1E0089583C0672F782F8827A6
:10063000B85F39F0B93FCCF3869577956795B39558
:10064000D9F73EF490958095709561957F4F8F4FC7
:100650009F4F0895990F0008550FAA0BE0E8FEEF91
:1006600016161706E807F907C0F012161306E40776
:10067000F50798F0621B730B840B950B39F40A266F
:1006800061F0232B242B252B21F408950A2609F44D
:10069000A140A6958FEF811D811D089597F99F6751
:1006A00080E870E060E008959FEF80EC08950024FA
:1006B0000A941616170618060906089500240A94C7
:1006C00012161306140605060895092E0394000C4D
:1006D00011F4882352F0BB0F40F4BF2B11F460FFDC
:1006E00004C06F5F7F4F8F4F9F4F089557FD905805
:1006F000440F551F59F05F3F71F04795880F97FBE6
:10070000991F61F09F3F79F087950895121613069F
:100710001406551FF2CF4695F1DF08C016161706CE
:100720001806991FF1CF8695710561050894089503
:10073000E894BB2766277727CB0197F908958ADFCE
:1007400008F48FEF08950BD0C0CFB1DF28F0B6DFEB
:1007500018F0952309F0A2CFA7CF1124EACFC6DF66
:10076000A0F3959FD1F3950F50E0551F629FF001C4
:10077000729FBB27F00DB11D639FAA27F00DB11D1D
:10078000AA1F649F6627B00DA11D661F829F2227A6
:10079000B00DA11D621F739FB00DA11D621F839F2D
:1007A000A00D611D221F749F3327A00D611D231F03
:1007B000849F600D211D822F762F6A2F11249F5751
:1007C00050408AF0E1F088234AF0EE0FFF1FBB1F74
:1007D000661F771F881F91505040A9F79E3F510513
:1007E00070F05CCFA6CF5F3FECF3983EDCF38695CC
:1007F00077956795B795F795E7959F5FC1F7FE2BBE
:10080000880F911D9695879597F90895F894FFCFD5
:10081000A4D082437BD49243A4D0A443719DAE4321
:100820000000C4430000DC43A4F0F64300D00244BF
:0408300001000000C3
:00000001FF
